{
  "address": "0xC10B1B64B8BA7C36920A5DdaD23c0C7636A2de14",
  "abi": [
    {
      "inputs": [
        {
          "internalType": "address",
          "name": "priceFeedAddress",
          "type": "address"
        }
      ],
      "stateMutability": "nonpayable",
      "type": "constructor"
    },
    {
      "inputs": [],
      "name": "notOwner",
      "type": "error"
    },
    {
      "stateMutability": "payable",
      "type": "fallback"
    },
    {
      "inputs": [],
      "name": "MINIMUM_USD",
      "outputs": [
        {
          "internalType": "uint256",
          "name": "",
          "type": "uint256"
        }
      ],
      "stateMutability": "view",
      "type": "function"
    },
    {
      "inputs": [],
      "name": "fund",
      "outputs": [],
      "stateMutability": "payable",
      "type": "function"
    },
    {
      "inputs": [
        {
          "internalType": "uint256",
          "name": "",
          "type": "uint256"
        }
      ],
      "name": "funders",
      "outputs": [
        {
          "internalType": "address",
          "name": "",
          "type": "address"
        }
      ],
      "stateMutability": "view",
      "type": "function"
    },
    {
      "inputs": [
        {
          "internalType": "address",
          "name": "",
          "type": "address"
        }
      ],
      "name": "fundersToAmount",
      "outputs": [
        {
          "internalType": "uint256",
          "name": "",
          "type": "uint256"
        }
      ],
      "stateMutability": "view",
      "type": "function"
    },
    {
      "inputs": [],
      "name": "i_owner",
      "outputs": [
        {
          "internalType": "address",
          "name": "",
          "type": "address"
        }
      ],
      "stateMutability": "view",
      "type": "function"
    },
    {
      "inputs": [],
      "name": "withdraw",
      "outputs": [],
      "stateMutability": "payable",
      "type": "function"
    },
    {
      "stateMutability": "payable",
      "type": "receive"
    }
  ],
  "transactionHash": "0x0f50d062b61b80733108ef5757f7040864f6852fc990c1ea1367f10aab2b237c",
  "args": [
    "0x8a753747a1fa494ec906ce90e9f37563a8af630e"
  ],
  "numDeployments": 1,
  "solcInputHash": "925e12f5e3e099ea2ca023090797d37a",
  "bytecode": "0x60a060405234801561001057600080fd5b50604051610dca380380610dca83398181016040528101906100329190610110565b3373ffffffffffffffffffffffffffffffffffffffff1660808173ffffffffffffffffffffffffffffffffffffffff168152505080600260006101000a81548173ffffffffffffffffffffffffffffffffffffffff021916908373ffffffffffffffffffffffffffffffffffffffff1602179055505061013d565b600080fd5b600073ffffffffffffffffffffffffffffffffffffffff82169050919050565b60006100dd826100b2565b9050919050565b6100ed816100d2565b81146100f857600080fd5b50565b60008151905061010a816100e4565b92915050565b600060208284031215610126576101256100ad565b5b6000610134848285016100fb565b91505092915050565b608051610c6b61015f6000396000818161029201526104f70152610c6b6000f3fe6080604052600436106100595760003560e01c80633ccfd60b146100725780636b69a5921461007c5780639f883a05146100a7578063b60d4288146100e4578063dba6335f146100ee578063dc0d3dff1461011957610068565b3661006857610066610156565b005b610070610156565b005b61007a610290565b005b34801561008857600080fd5b506100916104d0565b60405161009e91906106ea565b60405180910390f35b3480156100b357600080fd5b506100ce60048036038101906100c99190610768565b6104dd565b6040516100db91906106ea565b60405180910390f35b6100ec610156565b005b3480156100fa57600080fd5b506101036104f5565b60405161011091906107a4565b60405180910390f35b34801561012557600080fd5b50610140600480360381019061013b91906107eb565b610519565b60405161014d91906107a4565b60405180910390f35b6802b5e3af16b1880000610195600260009054906101000a900473ffffffffffffffffffffffffffffffffffffffff163461055890919063ffffffff16565b116101d5576040517f08c379a00000000000000000000000000000000000000000000000000000000081526004016101cc90610875565b60405180910390fd5b6000339080600181540180825580915050600190039060005260206000200160009091909190916101000a81548173ffffffffffffffffffffffffffffffffffffffff021916908373ffffffffffffffffffffffffffffffffffffffff16021790555034600160003373ffffffffffffffffffffffffffffffffffffffff1673ffffffffffffffffffffffffffffffffffffffff168152602001908152602001600020600082825461028791906108c4565b92505081905550565b7f000000000000000000000000000000000000000000000000000000000000000073ffffffffffffffffffffffffffffffffffffffff163373ffffffffffffffffffffffffffffffffffffffff1614610315576040517f251c9d6300000000000000000000000000000000000000000000000000000000815260040160405180910390fd5b60003373ffffffffffffffffffffffffffffffffffffffff164760405161033b9061094b565b60006040518083038185875af1925050503d8060008114610378576040519150601f19603f3d011682016040523d82523d6000602084013e61037d565b606091505b50509050806103c1576040517f08c379a00000000000000000000000000000000000000000000000000000000081526004016103b8906109ac565b60405180910390fd5b60005b60008054905081101561046c5760008082815481106103e6576103e56109cc565b5b9060005260206000200160009054906101000a900473ffffffffffffffffffffffffffffffffffffffff1690506000600160008373ffffffffffffffffffffffffffffffffffffffff1673ffffffffffffffffffffffffffffffffffffffff16815260200190815260200160002081905550508080610464906109fb565b9150506103c4565b50600067ffffffffffffffff81111561048857610487610a44565b5b6040519080825280602002602001820160405280156104b65781602001602082028036833780820191505090505b50600090805190602001906104cc92919061062a565b5050565b6802b5e3af16b188000081565b60016020528060005260406000206000915090505481565b7f000000000000000000000000000000000000000000000000000000000000000081565b6000818154811061052957600080fd5b906000526020600020016000915054906101000a900473ffffffffffffffffffffffffffffffffffffffff1681565b60008061056483610594565b90506000670de0b6b3a7640000828661057d9190610a73565b6105879190610afc565b9050809250505092915050565b6000808273ffffffffffffffffffffffffffffffffffffffff1663feaf968c6040518163ffffffff1660e01b815260040160a06040518083038186803b1580156105dd57600080fd5b505afa1580156105f1573d6000803e3d6000fd5b505050506040513d601f19601f820116820180604052508101906106159190610bba565b50505091505060008190508092505050919050565b8280548282559060005260206000209081019282156106a3579160200282015b828111156106a25782518260006101000a81548173ffffffffffffffffffffffffffffffffffffffff021916908373ffffffffffffffffffffffffffffffffffffffff1602179055509160200191906001019061064a565b5b5090506106b091906106b4565b5090565b5b808211156106cd5760008160009055506001016106b5565b5090565b6000819050919050565b6106e4816106d1565b82525050565b60006020820190506106ff60008301846106db565b92915050565b600080fd5b600073ffffffffffffffffffffffffffffffffffffffff82169050919050565b60006107358261070a565b9050919050565b6107458161072a565b811461075057600080fd5b50565b6000813590506107628161073c565b92915050565b60006020828403121561077e5761077d610705565b5b600061078c84828501610753565b91505092915050565b61079e8161072a565b82525050565b60006020820190506107b96000830184610795565b92915050565b6107c8816106d1565b81146107d357600080fd5b50565b6000813590506107e5816107bf565b92915050565b60006020828403121561080157610800610705565b5b600061080f848285016107d6565b91505092915050565b600082825260208201905092915050565b7f4e6f7420656e6f756768206d6f6e657921000000000000000000000000000000600082015250565b600061085f601183610818565b915061086a82610829565b602082019050919050565b6000602082019050818103600083015261088e81610852565b9050919050565b7f4e487b7100000000000000000000000000000000000000000000000000000000600052601160045260246000fd5b60006108cf826106d1565b91506108da836106d1565b9250827fffffffffffffffffffffffffffffffffffffffffffffffffffffffffffffffff0382111561090f5761090e610895565b5b828201905092915050565b600081905092915050565b50565b600061093560008361091a565b915061094082610925565b600082019050919050565b600061095682610928565b9150819050919050565b7f4e6f7420617574686f72697a6564210000000000000000000000000000000000600082015250565b6000610996600f83610818565b91506109a182610960565b602082019050919050565b600060208201905081810360008301526109c581610989565b9050919050565b7f4e487b7100000000000000000000000000000000000000000000000000000000600052603260045260246000fd5b6000610a06826106d1565b91507fffffffffffffffffffffffffffffffffffffffffffffffffffffffffffffffff821415610a3957610a38610895565b5b600182019050919050565b7f4e487b7100000000000000000000000000000000000000000000000000000000600052604160045260246000fd5b6000610a7e826106d1565b9150610a89836106d1565b9250817fffffffffffffffffffffffffffffffffffffffffffffffffffffffffffffffff0483118215151615610ac257610ac1610895565b5b828202905092915050565b7f4e487b7100000000000000000000000000000000000000000000000000000000600052601260045260246000fd5b6000610b07826106d1565b9150610b12836106d1565b925082610b2257610b21610acd565b5b828204905092915050565b600069ffffffffffffffffffff82169050919050565b610b4c81610b2d565b8114610b5757600080fd5b50565b600081519050610b6981610b43565b92915050565b6000819050919050565b610b8281610b6f565b8114610b8d57600080fd5b50565b600081519050610b9f81610b79565b92915050565b600081519050610bb4816107bf565b92915050565b600080600080600060a08688031215610bd657610bd5610705565b5b6000610be488828901610b5a565b9550506020610bf588828901610b90565b9450506040610c0688828901610ba5565b9350506060610c1788828901610ba5565b9250506080610c2888828901610b5a565b915050929550929590935056fea2646970667358221220da8fa66c5e4eed806e09644856698ddb88e96002fbeabcb3d463db1738f0b12664736f6c63430008090033",
  "devdoc": {
    "kind": "dev",
    "methods": {},
    "version": 1
  },
  "userdoc": {
    "kind": "user",
    "methods": {},
    "version": 1
  },
  "storageLayout": {
    "storage": [
      {
        "astId": 58,
        "contract": "contracts/FundMe.sol:FundMe",
        "label": "funders",
        "offset": 0,
        "slot": "0",
        "type": "t_array(t_address)dyn_storage"
      },
      {
        "astId": 62,
        "contract": "contracts/FundMe.sol:FundMe",
        "label": "fundersToAmount",
        "offset": 0,
        "slot": "1",
        "type": "t_mapping(t_address,t_uint256)"
      },
      {
        "astId": 70,
        "contract": "contracts/FundMe.sol:FundMe",
        "label": "priceFeed",
        "offset": 0,
        "slot": "2",
        "type": "t_contract(AggregatorV3Interface)45"
      }
    ],
    "types": {
      "t_address": {
        "encoding": "inplace",
        "label": "address",
        "numberOfBytes": "20"
      },
      "t_array(t_address)dyn_storage": {
        "base": "t_address",
        "encoding": "dynamic_array",
        "label": "address[]",
        "numberOfBytes": "32"
      },
      "t_contract(AggregatorV3Interface)45": {
        "encoding": "inplace",
        "label": "contract AggregatorV3Interface",
        "numberOfBytes": "20"
      },
      "t_mapping(t_address,t_uint256)": {
        "encoding": "mapping",
        "key": "t_address",
        "label": "mapping(address => uint256)",
        "numberOfBytes": "32",
        "value": "t_uint256"
      },
      "t_uint256": {
        "encoding": "inplace",
        "label": "uint256",
        "numberOfBytes": "32"
      }
    }
  }
}